:1000000028C042C041C040C03FC03EC03DC03CC00F
:100010003BC03AC039C009C137C036C035C034C052
:1000200033C032C031C0DAC0DEC0BBC0F9C0F8C0D6
:10003000F7C0F6C0F5C0F4C0DAC0E8C0E2C0DCC06A
:10004000EAC0EEC0EDC0ECC0EBC0EAC092C0A2C0F6
:1000500097C011241FBECFE5D4E0DEBFCDBF10E0B6
:10006000A0E6B0E0E2EAF3E002C005900D92A0360F
:10007000B107D9F710E0A0E6B0E001C01D92A836A4
:10008000B107E1F719D18BC1BBCF80ED97E02AE72B
:1000900030E0F9013197F1F70197D9F780ED97E05A
:1000A0002AE730E0F9013197F1F70197D9F780EDB0
:1000B00097E02AE730E0F9013197F1F70197D9F796
:1000C00080ED97E02AE730E0F9013197F1F70197E9
:1000D000D9F780ED97E02AE730E0F9013197F1F7A1
:1000E0000197D9F70895809162008230B1F580912F
:1000F00064008F5F80936400813039F480916100E7
:1001000080936500109266008DC0823009F08AC02D
:1001100040916100209165003091660084E690E096
:10012000BC01269FC001279F900D369F900D112482
:10013000840F911D9C0153E0220F331F5A95E1F764
:10014000880F991F280F391F309366002093650090
:10015000109262001092640065C08091610090E08E
:10016000FC013197E631F10508F05AC0ED5EFF4F12
:10017000099484E180936200E1D085E292E006C0B8
:1001800086E180936200DAD086E593E09BBD8ABD6C
:10019000CFD048C085E180936200D0D08DEB92E053
:1001A000F5CF83E0809362008091650090916600B6
:1001B0006AE070E0E0D08DE390E09C01629FC001B6
:1001C000639F900D729F900D11246AE070E0D3D070
:1001D000CB017093660060936500D8CF81E0809377
:1001E0006200ACD01FC082E0809362001BC08AE036
:1001F0008093620070D016C08DE08093620072D050
:1002000011C08CE08093620074D00CC08BE08093AE
:10021000620076D007C08EE08093620078D002C082
:10022000109262001092610008951F920F920FB613
:100230000F9211242F933F934F935F936F937F936C
:100240008F939F93AF93BF93EF93FF938CB1809362
:100250006000813619F41092630045DF80916300DD
:10026000882321F08091600080936100809160007C
:10027000813419F481E080936300FF91EF91BF9185
:10028000AF919F918F917F916F915F914F913F912E
:100290002F910F900FBE0F901F901895F6DE0FD084
:1002A00051D03BD0B99A4AD08DEB92E09BBD8ABD2C
:1002B0003FD081E090E00895F1DF7894FFCF81B3E3
:1002C000809367008E6181BB089582B3817E8093A5
:1002D000670082BB089582B38A608B7E809367003B
:1002E00082BB089582B38461857F8093670082BB5F
:1002F000089582B38A618B7F8093670082BB0895E3
:1003000082B38E608F7E8093670082BB089582B334
:100310008E618093670082BB089582E88FBD88E17B
:100320008EBD80E090E397BD86BD1DBC1CBC0895CA
:100330001DBC1CBC8EB582608EBD08958EB58D7FB0
:100340008EBD08958FEF89B910BC80E98AB986E81F
:1003500080BD08955D9BFECF8CB9089520E004C058
:100360005D9BFECFECB92F5FFC01E20FF11DE08138
:10037000EE23B1F70895AA1BBB1B51E107C0AA1FCA
:10038000BB1FA617B70710F0A61BB70B881F991F36
:100390005A95A9F780959095BC01CD010895F894E0
:0203A000FFCF8D
:00000001FF
